:100000000C9446000C9465000C9465000C946500FB
:100010000C9465000C9465000C9465000C946500CC
:100020000C9465000C9465000C9465000C946500BC
:100030000C9465000C9465000C9465000C946500AC
:100040000C9465000C9465000C9465000C9465009C
:100050000C9465000C9465000C9465000C9465008C
:100060000C9465000C9465000C9465000C9465007C
:100070000C9465000C9465000C9465000C9465006C
:100080000C9465000C9465000C94650011241FBE4F
:10009000CFEFD0E1DEBFCDBF11E0A0E0B1E0E4E8FA
:1000A000F1E000E00BBF02C007900D92A030B10755
:1000B000D9F711E0A0E0B1E001C01D92A030B10776
:1000C000E1F70E94A3000C94C0000C940000DF93A1
:1000D000CF93CDB7DEB7E0E9F0E01082E9E2F0E0DF
:1000E00083E08083E5E9F0E086E08083EAE2F0E007
:1000F00088E18083CF91DF910895DF93CF930F92B2
:10010000CDB7DEB78983EBE2F0E08081882F90E005
:10011000807290700097B9F3ECE2F0E089818083FF
:100120000F90CF91DF910895DF93CF93CDB7DEB7D6
:10013000EBE2F0E080818823DCF7ECE2F0E0808104
:10014000CF91DF910895DF93CF930F92CDB7DEB7B4
:100150000E94670081E40E947D0086E50E947D0088
:1001600082E50E947D008DE00E947D008AE00E9471
:100170007D000E949400898389810E947D00F9CFCF
:04018000F894FFCF21
:00000001FF
